:100000000C942A000C9447000C9447000C94470071
:100010000C9447000C9447000C9447000C94E8049F
:100020000C9447000C9447000C9447000C94470034
:100030000C9447000C9447000C9447000C94470024
:100040000C9447000C9447000C9447000C94470014
:100050000C94470011241FBECFE5D8E0DEBFCDBF12
:1000600010E0A0E6B0E0ECE9FEE002C005900D92E1
:10007000A83BB107D9F720E0A8EBB0E001C01D9282
:10008000A23DB207E1F70E941E050C944C070C94A8
:100090000000319A329A3E9A379A089597B1907E2D
:1000A00097B98430A1F030F4823061F068F4813087
:1000B000C9F406C0863081F060F0873099F40FC033
:1000C000389A10C0399A0EC0399A389A0BC03A9AA9
:1000D00009C03A9A389A06C03A9A399A03C03A9AAD
:1000E000399A389A369A3699FECF24B135B1822F93
:1000F000932F0895CF93C82F80FF06C041E064E09E
:1001000080E00E94460205C040E064E080E00E947A
:100110004602C1FF06C041E065E080E00E94460261
:1001200005C040E065E080E00E944602C2FF06C0D4
:1001300041E066E080E00E94460205C040E066E0E3
:1001400080E00E944602C3FF06C041E067E080E015
:100150000E94460205C040E067E080E00E9446023F
:10016000CF910895CF93C82F40E061E081E00E94D5
:1001700046028C2F0E947A0041E063E081E00E94F9
:10018000460287EB9BE00197F1F700C0000040E0DA
:1001900063E081E00E94460287EB9BE00197F1F764
:1001A00000C00000CF91089580E00E94B20081E07D
:1001B0000E94B2000895CF93C62F813059F4862F44
:1001C000805882958F700E94B2008C2F8F700E9491
:1001D000B2000CC0823051F4862F805482958F700B
:1001E0000E94B2008C2F8F700E94B200CF910895B0
:1001F00080E00E947A008FE59AEE0197F1F700C047
:10020000000083E00E94B20087E99AE30197F1F7CA
:1002100000C0000083E00E94B20087EE90E80197E2
:10022000F1F700C0000083E00E94B20082E00E946B
:10023000B20082E00E94B20088E00E94B20080E03A
:100240000E94B2008CE00E94B20080E00E94B200E6
:1002500086E00E94B2000895CF93C82F41E061E08C
:1002600081E00E9446028C2F82958F700E947A0056
:1002700041E063E081E00E94460287EB9BE001974A
:10028000F1F700C0000040E063E081E00E94460218
:1002900087EB9BE00197F1F700C000008C2F8F7077
:1002A0000E947A0041E063E081E00E94460287EB11
:1002B0009BE00197F1F700C0000040E063E081E0BF
:1002C0000E94460287EB9BE00197F1F700C0000017
:1002D000CF9108951F93CF93DF93EC0188818823FA
:1002E00051F010E00E942C011F5FFE01E10FF11D93
:1002F00080818111F7CFDF91CF911F910895AC01DB
:100300009C01369527953695279536952795A5EC2A
:10031000B0E20E944007929582958F7089279F7066
:100320008927E82FE05D68EE73E0869F9001879F44
:10033000300D969F300D1124421B530B9A013695B8
:10034000279536952795ABE7B4E10E94400796952F
:100350008795F82FF05D64E6689F9001699F300DE6
:100360001124421B530B9A01ADECBCEC0E944007D8
:10037000969587959695879596958795682F605D54
:100380009C01220F331F880F991F880F991F880F18
:10039000991F820F931F481B590B405DE093CA00C1
:1003A000F093CB006093CC004093CD001092CE0030
:1003B0000895CF93C82F0E9410058C2F0E941A0514
:1003C000CF91089560E083E00E94C3029091B8004D
:1003D000981308C02091B9002F5F2093B9002330F3
:1003E00020F405C01092B90002C09093BA00809327
:1003F000B800089561E083E00E94C3029091BB00C1
:10040000981308C02091BC002F5F2093BC002330BC
:1004100020F405C01092BC0002C09093BD008093F0
:10042000BB000895813039F018F0823051F406C0D5
:100430008091BA0008958091BD0008958091BE001A
:10044000089580E00895813031F441E064E083E074
:100450000E944602089540E064E083E00E94460264
:1004600008958091BF00813041F441E064E083E071
:100470000E9446021092BF00089540E064E083E0CD
:100480000E94460281E08093BF000895813021F1EF
:1004900030F08230F1F1833009F074C057C0413040
:1004A00069F42BB381E090E0AC0102C0440F551F0A
:1004B0006A95E2F7BA01622B6BBB08952BB381E01A
:1004C00090E0AC0102C0440F551F6A95E2F7BA01F3
:1004D000609562236BBB0895413069F428B381E0D5
:1004E00090E0AC0102C0440F551F6A95E2F7BA01D3
:1004F000622B68BB089528B381E090E0AC0102C094
:10050000440F551F6A95E2F7BA016095622368BBF4
:100510000895413069F425B381E090E0AC0102C058
:10052000440F551F6A95E2F7BA01622B65BB089527
:1005300025B381E090E0AC0102C0440F551F6A95DD
:10054000E2F7BA016095622365BB0895413069F412
:1005500022B381E090E0AC0102C0440F551F6A95C0
:10056000E2F7BA01622B62BB089522B381E090E00A
:10057000AC0102C0440F551F6A95E2F7BA016095BD
:10058000622362BB0895813081F028F08230B9F097
:10059000833049F51EC029B330E0C90102C09595EA
:1005A00087956A95E2F78170089526B330E0C90116
:1005B00002C0959587956A95E2F78170089523B3F7
:1005C00030E0C90102C0959587956A95E2F7817080
:1005D000089520B330E0C90102C0959587956A95CA
:1005E000E2F78170089580E0089520E630E080E829
:1005F00090E0F90141E050E07E2F721BA72FA77019
:10060000769576957695713041F138F0723009F42F
:1006100044C0733009F07EC05FC0608161110AC0C0
:10062000BAB3BA0102C0660F771FAA95E2F76B2B27
:100630006ABB70C0BAB3BA0102C0660F771FAA9531
:10064000E2F7A62FA095AB23AABBA081A13009F0A9
:1006500061C07BB3672B6BBB5DC0608161110AC059
:10066000B7B3BA0102C0660F771FAA95E2F76B2BEA
:1006700067BB50C0B7B3BA0102C0660F771FAA9517
:10068000E2F7A62FA095AB23A7BBA081A13009F06C
:1006900041C078B3672B68BB3DC0608161110AC05F
:1006A000B4B3BA0102C0660F771FAA95E2F76B2BAD
:1006B00064BB30C0B4B3BA0102C0660F771FAA95FD
:1006C000E2F7A62FA095AB23A4BBA081A13011F522
:1006D00075B3672B65BB1EC0608161110AC0B1B3E1
:1006E000BA0102C0660F771FAA95E2F76B2B61BBB8
:1006F00011C0B1B3BA0102C0660F771FAA95E2F725
:10070000A62FA095AB23A1BBA081A13019F472B391
:10071000672B62BB3196E817F90709F06DCF089592
:10072000813019F40E94F003089580E00E94F003E4
:100730000895813051F018F0823091F40CC0462FAA
:1007400067E083E00E9446020895462F66E083E05A
:100750000E9446020895462F65E083E00E9446020B
:1007600008958091C000813041F441E067E083E06A
:100770000E9446021092C000089540E067E083E0C6
:100780000E94460281E08093C00008958091C100DC
:10079000813041F441E066E083E00E94460210921D
:1007A000C100089540E066E083E00E94460281E0D7
:1007B0008093C10008958091C200813041F441E0EE
:1007C00065E083E00E9446021092C200089540E076
:1007D00065E083E00E94460281E08093C2000895B4
:1007E000813031F441E063E083E00E9446020895E5
:1007F00040E063E083E00E94460208958091C300D8
:10080000813021F08091C400813079F481E00E9430
:1008100090030E94B1030E94C6030E94DB030E9462
:10082000310287E70E94D901089580E00E94900379
:1008300060E080E00E94990360E081E00E949903FB
:1008400060E082E00E94990380E090E00E94230231
:1008500008958091D10083323CF48091CF00909133
:10086000D0008115924020F081E08093C30002C047
:100870001092C30080E00E941202813019F480932C
:10088000C400089581E00E941202813011F4109298
:10089000C4000895CF938091C300813021F08091EE
:1008A000C400813039F40E94D40080E890E00E94B6
:1008B0006A012AC0C091D1000E94D4008EE890E065
:1008C0000E946A01CC2324F48DE20E942C01C19580
:1008D0008C2F992787FD90950E947F018AEC90E0EC
:1008E0000E946A0160E082E00E94DB008091CF00FC
:1008F0009091D0000E947F0184E990E00E946A01FB
:100900008AEC90E00E946A01CF9108950F2EFBE9D6
:10091000EF2EF0E0FF2EF02D07EB10E08091C900E4
:100920008130E1F78090C5009090C600A090C7008C
:10093000B090C800E7012881398140E050E0C5014E
:10094000B4010E941E07672B682B692B19F4EA81FA
:10095000FB8109951092C9002496C017D10759F759
:10096000DDCF80E00E944E009093D0008093CF00B6
:10097000089581E00E944E00BC0180E090E00E945A
:100980002D0621E73DE34EE451E40E94940520E06A
:1009900030E04AE754E40E94BB0620E030E44CE13A
:1009A00057E40E942F0520E030E04AE754E40E941B
:1009B00094050E94FC056093D100089589E08EBDE6
:1009C0008FED9EE29BBD8ABD80E189BF789408953A
:1009D0001F920F920FB60F9211248F939F93AF9394
:1009E000BF938091C5009091C600A091C700B091BF
:1009F000C8000196A11DB11D8093C5009093C6004B
:100A0000A093C700B093C80081E08093C900BF9154
:100A1000AF919F918F910F900FBE0F901F901895DF
:100A200010BC8DE489B98AB188618AB980B58668BD
:100A300080BD08955D9BFECF8CB908950E94F5029C
:100A40000E94DE040E9449000E94F8000E94D40027
:100A50000E9410050E94860480E090E0089550589E
:100A6000BB27AA270ED04DC13ED130F043D120F094
:100A700031F49F3F11F41EF433C10EF4E095E7FB0F
:100A800029C1E92F4FD180F3BA1762077307840792
:100A9000950718F071F49EF567C10EF4E0950B2EE2
:100AA000BA2FA02D0B01B90190010C01CA01A001C0
:100AB0001124FF27591B99F0593F50F4503E68F11B
:100AC0001A16F040A22F232F342F4427585FF3CF5C
:100AD000469537952795A795F0405395C9F77EF42D
:100AE0001F16BA0B620B730B840BBAF09150A1F076
:100AF000FF0FBB1F661F771F881FC2F70EC0BA0FFC
:100B0000621F731F841F48F4879577956795B79583
:100B1000F7959E3F08F0B3CF9395880F08F099277B
:100B2000EE0F9795879508950CD0EBC0E3D040F079
:100B3000DAD030F021F45F3F19F0CCC0511115C16B
:100B4000CFC0F0D098F39923C9F35523B1F3951B87
:100B5000550BBB27AA2762177307840738F09F5FDE
:100B60005F4F220F331F441FAA1FA9F333D00E2E4D
:100B70003AF0E0E830D091505040E695001CCAF7BA
:100B800029D0FE2F27D0660F771F881FBB1F26177F
:100B900037074807AB07B0E809F0BB0B802DBF0152
:100BA000FF2793585F4F2AF09E3F510568F092C08F
:100BB000DCC05F3FECF3983EDCF386957795679554
:100BC000B795F7959F5FC9F7880F911D9695879503
:100BD00097F90895E1E0660F771F881FBB1F621722
:100BE00073078407BA0720F0621B730B840BBA0BE0
:100BF000EE1F88F7E095089504D06894B111B5C050
:100C0000089598D088F09F5790F0B92F9927B75141
:100C1000A0F0D1F0660F771F881F991F1AF0BA95C0
:100C2000C9F712C0B13081F09FD0B1E008959CC0E7
:100C3000672F782F8827B85F39F0B93FCCF38695B6
:100C400077956795B395D9F73EF490958095709513
:100C500061957F4F8F4F9F4F0895E89409C097FB90
:100C60003EF490958095709561957F4F8F4F9F4F83
:100C70009923A9F0F92F96E9BB279395F6958795C7
:100C800077956795B795F111F8CFFAF4BB0F11F48A
:100C900060FF1BC06F5F7F4F8F4F9F4F16C0882331
:100CA00011F096E911C0772321F09EE8872F762F67
:100CB00005C0662371F096E8862F70E060E02AF0A8
:100CC0009A95660F771F881FDAF7880F9695879594
:100CD00097F9089597F99F6780E870E060E00895BC
:100CE0009FEF80EC089500240A9416161706180644
:100CF0000906089500240A94121613061406050620
:100D00000895092E0394000C11F4882352F0BB0FB0
:100D100040F4BF2B11F460FF04C06F5F7F4F8F4F13
:100D20009F4F089557FD9058440F551F59F05F3F4E
:100D300071F04795880F97FB991F61F09F3F79F0FD
:100D400087950895121613061406551FF2CF46957F
:100D5000F1DF08C0161617061806991FF1CF869501
:100D60007105610508940895E894BB2766277727E5
:100D7000CB0197F908950BD0C4CFB5DF28F0BADFC7
:100D800018F0952309F0A6CFABCF1124EECFCADF20
:100D9000A0F3959FD1F3950F50E0551F629FF0018E
:100DA000729FBB27F00DB11D639FAA27F00DB11DE7
:100DB000AA1F649F6627B00DA11D661F829F222770
:100DC000B00DA11D621F739FB00DA11D621F839FF7
:100DD000A00D611D221F749F3327A00D611D231FCD
:100DE000849F600D211D822F762F6A2F11249F571B
:100DF00050408AF0E1F088234AF0EE0FFF1FBB1F3E
:100E0000661F771F881F91505040A9F79E3F5105DC
:100E100070F060CFAACF5F3FECF3983EDCF386958D
:100E200077956795B795F795E7959F5FC1F7FE2B87
:100E3000880F911D9695879597F90895A1E21A2E2E
:100E4000AA1BBB1BFD010DC0AA1FBB1FEE1FFF1F6E
:100E5000A217B307E407F50720F0A21BB30BE40BBE
:100E6000F50B661F771F881F991F1A9469F7609505
:100E70007095809590959B01AC01BD01CF010895BF
:100E8000A29FB001B39FC001A39F01D0B29F700D7C
:0C0E9000811D1124911D0895F894FFCFDE
:100E9C000202020200000000000000000202020236
:100EAC00020200000000000002020200000000002C
:100EBC004649524520414C41524D20212100746538
:100ECC006D703A00736D6F6B653A001400E201149B
:100EDC0000FA016400B1046400B904C8004A04C8F3
:080EEC00002904C800FE030008
:00000001FF
