S01100004578657263697365362E73726563A5
S11300000C943A000C9457000C9457000C9457002D
S11300100C9457000C9457000C9457000C94570000
S11300200C9457000C9457000C9457000C945700F0
S11300300C9457000C9457000C9457000C945700E0
S11300400C9457000C9457000C9457000C945700D0
S11300500C945700F600F800FA00FC00FE000001C2
S113006002010401060108010A010C010E0110013C
S11300701201140111241FBECFE5D4E0DEBFCDBFB1
S113008010E0A0E6B0E0EEEDF0E102C005900D92C4
S1130090A63AB107D9F720E0A6EAB0E001C01D9264
S11300A0A93AB207E1F70E9471000C946D080C9410
S11300B00000CF93DF9300D0CDB7DEB71A82198248
S11300C005C089819A8101969A83898389819A815D
S11300D081319742B4F300000F900F90DF91CF91DC
S11300E00895CF93DF93CDB7DEB70E9440030E94FB
S11300F0F8060E943A078093A7000E94FE050E941A
S113010038060E944B060E94DD06F3CFCF93DF939F
S113011000D0CDB7DEB7198244C08AE390E02981CC
S1130120422F50E020E130E002C0220F331F4A95F5
S1130130E2F7FC0120838BE390E02981422F50E019
S113014020E130E002C0220F331F4A95E2F72095E8
S1130150FC0120831A821FC089E390E0FC018081A6
S1130160882F90E02A81222F30E002C09595879550
S11301702A95E2F781709927892B51F48A81982F67
S1130180990F990F8981890F8F5F0E94DB000EC040
S11301908A818F5F8A838A818430F0F289818F5FBC
S11301A089838981843008F4B8CFB5CF0F900F903C
S11301B0DF91CF910895CF93DF931F92CDB7DEB730
S11301C089838981882F90E0092E000CAA0BBB0B30
S11301D041E050E02FE030E0841B950B28173907ED
S11301E028F1865D9F4FFC010C94670887E31FC0CC
S11301F088E31DC089E31BC085E219C084E317C0EE
S113020085E315C086E313C08AE211C081E30FC001
S113021082E30DC083E30BC08DE209C083E307C012
S113022080E305C08DE303C08BE201C089810F9098
S1130230DF91CF910895CF93DF93CDB7DEB7E997E0
S11302400FB6F894DEBF0FBECDBF89AF85E390E053
S113025025E330E0F9012081297FFC01208380E03F
S113026090E0A0EAB0E489839A83AB83BC8320E066
S113027030E04AE753E469817A818B819C810E9452
S1130280D207DC01CB018FA798ABA9ABBAAB20E0B6
S113029030E040E85FE36FA578A989A99AA90E9494
S11302A04C0788232CF481E090E09CAB8BAB3FC0DF
S11302B020E03FEF4FE757E46FA578A989A99AA9F1
S11302C00E94CD0718164CF520E030E040E251E4DE
S11302D069817A818B819C810E94D207DC01CB01E8
S11302E0BC01CD010E945107DC01CB019CAB8BAB5F
S11302F00FC089E190E09EAB8DAB8DA99EA90197BB
S1130300F1F79EAB8DAB8BA99CA901979CAB8BABF2
S11303108BA99CA9892B69F714C06FA578A989A911
S11303209AA90E945107DC01CB019CAB8BAB8BA932
S11303309CA998AF8FAB8FA998AD0197F1F798AFAF
S11303408FAB82E390E029ADFC01208385E390E04C
S113035025E330E0F90120812860FC01208380E05E
S113036090E0A0EAB1E48D839E83AF83B88720E058
S113037030E04AE753E46D817E818F8198850E9445
S1130380D207DC01CB018DA39EA3AFA3B8A720E0C5
S113039030E040E85FE36DA17EA18FA198A50E94A3
S11303A04C0788232CF481E090E09AA789A73FC0EA
S11303B020E03FEF4FE757E46DA17EA18FA198A500
S11303C00E94CD0718164CF520E030E040E251E4DD
S11303D06D817E818F8198850E94D207DC01CB01DB
S11303E0BC01CD010E945107DC01CB019AA789A76A
S11303F00FC089E190E09CA78BA78BA59CA50197D2
S1130400F1F79CA78BA789A59AA501979AA789A715
S113041089A59AA5892B69F714C06DA17EA18FA126
S113042098A50E945107DC01CB019AA789A789A549
S11304309AA59EA78DA78DA59EA50197F1F79EA7C6
S11304408DA785E390E025E330E0F9012081277F43
S1130450FC01208382E390E022E330E0F901208173
S11304602F70FC01208382E390E029AD222F30E03D
S113047022953295307F3227207F3227FC0120835A
S113048085E390E025E330E0F90120812860FC0158
S1130490208380E090E0A0EAB1E489879A87AB8763
S11304A0BC8720E030E04AE753E469857A858B8590
S11304B09C850E94D207DC01CB018B8F9C8FAD8F72
S11304C0BE8F20E030E040E85FE36B8D7C8D8D8D46
S11304D09E8D0E944C0788232CF481E090E098A321
S11304E08F8F3FC020E03FEF4FE757E46B8D7C8D4B
S11304F08D8D9E8D0E94CD0718164CF520E030E0BE
S113050040E251E469857A858B859C850E94D207F7
S1130510DC01CB01BC01CD010E945107DC01CB0100
S113052098A38F8F0FC089E190E09AA389A389A132
S11305309AA10197F1F79AA389A38F8D98A10197A6
S113054098A38F8F8F8D98A1892B69F714C06B8D19
S11305507C8D8D8D9E8D0E945107DC01CB0198A36B
S11305608F8F8F8D98A19CA38BA38BA19CA10197A6
S1130570F1F79CA38BA385E390E025E330E0F90138
S11305802081277FFC01208380E090E0A0EAB1E491
S11305908D879E87AF87B88B20E030E04AE753E42D
S11305A06D857E858F8598890E94D207DC01CB01F9
S11305B0898B9A8BAB8BBC8B20E030E040E85FE307
S11305C069897A898B899C890E944C0788232CF439
S11305D081E090E09E8B8D8B3FC020E03FEF4FE7A2
S11305E057E469897A898B899C890E94CD071816FA
S11305F04CF520E030E040E251E46D857E858F8546
S113060098890E94D207DC01CB01BC01CD010E9474
S11306105107DC01CB019E8B8D8B0FC089E190E0EB
S1130620988F8F8B8F89988D0197F1F7988F8F8B87
S11306308D899E8901979E8B8D8B8D899E89892BAF
S113064069F714C069897A898B899C890E9451074A
S1130650DC01CB019E8B8D8B8D899E899A8F898F2E
S1130660898D9A8D0197F1F79A8F898F0000E99609
S11306700FB6F894DEBF0FBECDBFDF91CF910895C2
S1130680CF93DF93CDB7DEB781E390E021E330E091
S1130690F9012081206FFC01208384E390E024E3AE
S11306A030E0F90120812F60FC01208382E00E9468
S11306B01B0188E20E941B018CE00E941B0186E062
S11306C00E941B0180E80E941B010000DF91CF9172
S11306D00895CF93DF93CDB7DEB7E9970FB6F894BB
S11306E0DEBF0FBECDBF89AF85E390E025E330E0E8
S11306F0F90120812B7FFC01208385E390E025E331
S113070030E0F90120812260FC01208380E090E048
S1130710A0EAB0E489839A83AB83BC8320E030E011
S11307204AE753E469817A818B819C810E94D207D4
S1130730DC01CB018FA798ABA9ABBAAB20E030E0CA
S113074040E85FE36FA578A989A99AA90E944C079C
S113075088232CF481E090E09CAB8BAB3FC020E07D
S11307603FEF4FE757E46FA578A989A99AA90E949A
S1130770CD0718164CF520E030E040E251E46981E1
S11307807A818B819C810E94D207DC01CB01BC0160
S1130790CD010E945107DC01CB019CAB8BAB0FC098
S11307A089E190E09EAB8DAB8DA99EA90197F1F7ED
S11307B09EAB8DAB8BA99CA901979CAB8BAB8BA9F2
S11307C09CA9892B69F714C06FA578A989A99AA94E
S11307D00E945107DC01CB019CAB8BAB8BA99CA97C
S11307E098AF8FAB8FA998AD0197F1F798AF8FAB06
S11307F082E390E022E330E0F90120812F70FC01D4
S1130800208382E390E029ADFC01208385E390E01E
S113081025E330E0F90120812860FC01208380E099
S113082090E0A0EAB0E48D839E83AF83B88720E094
S113083030E04AE753E46D817E818F8198850E9480
S1130840D207DC01CB018DA39EA3AFA3B8A720E000
S113085030E040E85FE36DA17EA18FA198A50E94DE
S11308604C0788232CF481E090E09AA789A73FC025
S113087020E03FEF4FE757E46DA17EA18FA198A53B
S11308800E94CD0718164CF520E030E040E251E418
S11308906D817E818F8198850E94D207DC01CB0116
S11308A0BC01CD010E945107DC01CB019AA789A7A5
S11308B00FC089E190E09CA78BA78BA59CA501970D
S11308C0F1F79CA78BA789A59AA501979AA789A751
S11308D089A59AA5892B69F714C06DA17EA18FA162
S11308E098A50E945107DC01CB019AA789A789A585
S11308F09AA59EA78DA78DA59EA50197F1F79EA702
S11309008DA785E390E025E330E0F9012081277F7E
S1130910FC01208382E390E022E330E0F9012081AE
S11309202F70FC01208382E390E029AD222F30E078
S113093022953295307F3227207F3227FC01208395
S113094085E390E025E330E0F90120812860FC0193
S1130950208380E090E0A0EAB0E489879A87AB879F
S1130960BC8720E030E04AE753E469857A858B85CB
S11309709C850E94D207DC01CB018B8F9C8FAD8FAD
S1130980BE8F20E030E040E85FE36B8D7C8D8D8D81
S11309909E8D0E944C0788232CF481E090E098A35C
S11309A08F8F3FC020E03FEF4FE757E46B8D7C8D86
S11309B08D8D9E8D0E94CD0718164CF520E030E0F9
S11309C040E251E469857A858B859C850E94D20733
S11309D0DC01CB01BC01CD010E945107DC01CB013C
S11309E098A38F8F0FC089E190E09AA389A389A16E
S11309F09AA10197F1F79AA389A38F8D98A10197E2
S1130A0098A38F8F8F8D98A1892B69F714C06B8D54
S1130A107C8D8D8D9E8D0E945107DC01CB0198A3A6
S1130A208F8F8F8D98A19CA38BA38BA19CA10197E1
S1130A30F1F79CA38BA385E390E025E330E0F90173
S1130A402081277FFC01208380E090E0A0EAB1E4CC
S1130A508D879E87AF87B88B20E030E04AE753E468
S1130A606D857E858F8598890E94D207DC01CB0134
S1130A70898B9A8BAB8BBC8B20E030E040E85FE342
S1130A8069897A898B899C890E944C0788232CF474
S1130A9081E090E09E8B8D8B3FC020E03FEF4FE7DD
S1130AA057E469897A898B899C890E94CD07181635
S1130AB04CF520E030E040E251E46D857E858F8581
S1130AC098890E94D207DC01CB01BC01CD010E94B0
S1130AD05107DC01CB019E8B8D8B0FC089E190E027
S1130AE0988F8F8B8F89988D0197F1F7988F8F8BC3
S1130AF08D899E8901979E8B8D8B8D899E89892BEB
S1130B0069F714C069897A898B899C890E94510785
S1130B10DC01CB019E8B8D8B8D899E899A8F898F69
S1130B20898D9A8D0197F1F79A8F898F0000E99644
S1130B300FB6F894DEBF0FBECDBFDF91CF910895FD
S1130B40CF93DF9300D0CDB7DEB79A8389830BC0F0
S1130B5089819A81FC0180810E94690389819A813B
S1130B6001969A83898389819A81FC0180818823F3
S1130B7079F700000F900F90DF91CF910895CF93F4
S1130B80DF93CDB7DEB781E00E941B010000DF9147
S1130B90CF910895CF93DF9300D01F92CDB7DEB7E6
S1130BA08A836B838A81882F90E08130910579F064
S1130BB0823091051CF4892B39F015C082309105DF
S1130BC051F0039761F00FC08B8189830CC08B8136
S1130BD0805C898308C08B81805F898304C08B819A
S1130BE0805B89830000898180680E941B0100006A
S1130BF00F900F900F90DF91CF910895CF93DF93D3
S1130C00CDB7DEB78091A700813371F58091A6003E
S1130C10882349F40E94BF0580E80E941B0180E6F6
S1130C2090E00E94A0058091A6008F5F8093A600AB
S1130C300E9486008093A8000E9459008091A80019
S1130C400E941F078091A800803370F08091A80053
S1130C508A3350F48091A8000E9469038091A60011
S1130C60843011F41092A6000000DF91CF91089512
S1130C70CF93DF93CDB7DEB78091A700823339F4E9
S1130C8080E80E941B018AE690E00E94A005000013
S1130C90DF91CF910895CF93DF93CDB7DEB72E9731
S1130CA00FB6F894DEBF0FBECDBF8091A70083338B
S1130CB009F079C080E80E941B0188E790E00E9457
S1130CC0A00580E090E0AAE7B4E489839A83AB832B
S1130CD0BC8320E030E04AE753E469817A818B8168
S1130CE09C810E94D207DC01CB018D839E83AF835C
S1130CF0B88720E030E040E85FE36D817E818F813A
S1130D0098850E944C0788232CF481E090E09A8710
S1130D1089873FC020E03FEF4FE757E46D817E8134
S1130D208F8198850E94CD0718164CF520E030E09D
S1130D3040E251E469817A818B819C810E94D207CF
S1130D40DC01CB01BC01CD010E945107DC01CB01C8
S1130D509A8789870FC089E190E09C878B878B8570
S1130D609C850197F1F79C878B8789859A850197E4
S1130D709A87898789859A85892B69F714C06D813B
S1130D807E818F8198850E945107DC01CB019A876F
S1130D90898789859A859E878D878D859E8501970C
S1130DA0F1F79E878D8700002E960FB6F894DEBF6C
S1130DB00FBECDBFDF91CF910895CF93DF93CDB711
S1130DC0DEB78091A700843379F480E80E941B0188
S1130DD087E890E00E94A00560E081E00E94CA05D7
S1130DE087E990E00E94A0050000DF91CF9108956B
S1130DF0CF93DF93CDB7DEB78BE290E02BE230E008
S1130E00F9012081FC0120838AE290E02AE230E0AB
S1130E10F90120812861FC01208380E490E020E432
S1130E2030E0F90120812668FC01208389E290E00A
S1130E3027E6FC0120830000DF91CF910895CF9332
S1130E40DF931F92CDB7DEB7898300008BE290E079
S1130E50FC018081882F90E080729927892BB1F35F
S1130E608CE290E02981FC01208300000F90DF9147
S1130E70CF910895CF93DF93CDB7DEB700008BE217
S1130E8090E0FC0180818823D4F78CE290E0FC019F
S1130E908081DF91CF9108950E94800708F481E05A
S1130EA008950E94AC0788F09F5798F0B92F9927AE
S1130EB0B751B0F0E1F0660F771F881F991F1AF041
S1130EC0BA95C9F714C0B13091F00E94C607B1E0D9
S1130ED008950C94C607672F782F8827B85F39F0D8
S1130EE0B93FCCF3869577956795B395D9F73EF4DA
S1130EF090958095709561957F4F8F4F9F4F089582
S1130F00990F0008550FAA0BE0E8FEEF1616170616
S1130F10E807F907C0F012161306E407F50798F07E
S1130F20621B730B840B950B39F40A2661F0232B97
S1130F30242B252B21F408950A2609F4A140A69513
S1130F408FEF811D811D089557FD9058440F551F43
S1130F5059F05F3F71F04795880F97FB991F61F037
S1130F609F3F79F087950895121613061406551FAE
S1130F70F2CF4695F1DF08C0161617061806991F1A
S1130F80F1CF86957105610508940895E894BB270F
S1130F9066277727CB0197F908950E94800708F404
S1130FA08FEF08950E94E5070C9456080E944808A4
S1130FB038F00E944F0820F0952311F00C943F085C
S1130FC00C94450811240C94C7070E94A40770F3DD
S1130FD0959FC1F3950F50E0551F629FF001729FDA
S1130FE0BB27F00DB11D639FAA27F00DB11DAA1FE9
S1130FF0649F6627B00DA11D661F829F2227B00D36
S1131000A11D621F739FB00DA11D621F839FA00DC0
S1131010611D221F749F3327A00D611D231F849F10
S1131020600D211D822F762F6A2F11249F57504067
S11310309AF0F1F088234AF0EE0FFF1FBB1F661FE2
S1131040771F881F91505040A9F79E3F510580F0AB
S11310500C943F080C94C7075F3FE4F3983ED4F325
S1131060869577956795B795F795E7959F5FC1F74F
S1131070FE2B880F911D9695879597F9089597F9FA
S11310809F6780E870E060E008959FEF80EC08952A
S113109000240A9416161706180609060895002453
S11310A00A9412161306140605060895092E0394CD
S11310B0000C11F4882352F0BB0F40F4BF2B11F441
S11310C060FF04C06F5F7F4F8F4F9F4F0895EE0FF7
S11110D0FF1F0590F491E02D0994F894FFCFD2
S11310DE70617373776F72643A0074727565207001
S11310EE617373776F72640077726F6E67207061CD
S11310FE7373776F72640077726F6E6720706173AB
S113110E73776F72642000332074696D6573207277
S109111E657365742000F6
S9030000FC
