:100000000C942A000C9447000C9447000C94470071
:100010000C9447000C9447000C9447000C94470044
:100020000C9447000C9447000C9447000C94690111
:100030000C9447000C948D010C9447000C944700DD
:100040000C9447000C9447000C9447000C94470014
:100050000C94470011241FBECFE5D8E0DEBFCDBF12
:1000600010E0A0E6B0E0E0E4F6E002C005900D92FA
:10007000A236B107D9F720E0A2E6B0E001C01D9298
:10008000A537B207E1F70E94FD010C941E030C9402
:10009000000021E040E060E082E00E943601089527
:1000A0001F93CF93DF93EC01162F0E944F010E9404
:1000B0006601883009F5CE0188279770880F892F4F
:1000C000881F990B9195806A0E9458010E946601D1
:1000D0008831A1F48C2F0E9458010E946601883259
:1000E00079F4812F0E9458010E946601883251F4F0
:1000F0000E94550181E007C080E005C080E003C098
:1001000080E001C080E0DF91CF911F910895EF92D0
:10011000FF920F931F93CF93DF93EC018B010E940B
:100120004F010E946601883091F57E01EE2487E040
:10013000F822EE0CEF2CEE1CFF08F1948E2D806A55
:100140000E9458010E946601883119F58C2F0E9487
:1001500058010E9466018832F1F40E944F010E940A
:1001600066018031D1F48E2D816A0E9458010E946F
:1001700066018034A1F40E945F01F80180830E942F
:100180006601883571F40E94550181E00BC080E062
:1001900009C080E007C080E005C080E003C080E0C7
:1001A00001C080E0DF91CF911F910F91FF90EF9000
:1001B000089562E381E190E00E9450008FE19EE4A7
:1001C0000197F1F700C000006EE670E081E190E079
:1001D0000E9487008FE19EE40197F1F700C00000C4
:1001E00063E382E190E00E9450008FE19EE401977A
:1001F000F1F700C000006FE670E082E190E00E943D
:1002000087008FE19EE40197F1F700C0000063E3EF
:1002100084E190E00E9450008FE19EE40197F1F7A5
:1002200000C0000060E770E084E190E00E94870079
:100230008FE19EE40197F1F700C0000063E385E1E0
:1002400090E00E9450008FE19EE40197F1F700C01A
:10025000000061E770E085E190E00E9487008FE197
:100260009EE40197F1F700C00000089596B79460EE
:1002700096BF813019F0823029F007C080E280B942
:1002800011B803C082E080B911B822B917984111A2
:10029000109A662319F086B7806486BF089584EAB1
:1002A00086BF06B607FEFDCF089584E986BF089590
:1002B00083B984E886BF06B607FEFDCF089584E8BB
:1002C00086BF06B607FEFDCF83B1089581B1887F52
:1002D00008951F920F920FB60F9211242F933F9300
:1002E0004F935F936F937F938F939F93AF93BF933E
:1002F000EF93FF930E94E202FF91EF91BF91AF91C4
:100300009F918F917F916F915F914F913F912F912D
:100310000F900FBE0F901F9018951F920F920FB65F
:100320000F9211242F933F934F935F936F937F937B
:100330008F939F93AF93BF93EF93FF936CB1809193
:100340006200909163000E9450008FE19EE401974B
:10035000F1F700C000008091620090916300BC0141
:1003600066597F4F0E9487008FE19EE40197F1F765
:1003700000C000006091620088E090E00E945000A0
:100380008FE19EE40197F1F700C0000062E770E0A2
:1003900088E090E00E9487008FE19EE40197F1F7EA
:1003A00000C00000809162009091630003971CF4EC
:1003B00081E30E941902809162009091630001968E
:1003C0008430910529F0909363008093620004C00B
:1003D0001092630010926200FF91EF91BF91AF9174
:1003E0009F918F917F916F915F914F913F912F914D
:1003F0000F900FBE0F901F9018958FEF8ABB84BB94
:100400000E940C020E9449000E94D90081E30E94D0
:1004100019020E941D02FDCF78948BB18BB98AB16D
:1004200088698AB980B5866880BD10BC87E689B9BD
:1004300008955D9BFECF8CB908950F931F93CF93C2
:10044000DF938091600090916100019709F03FC0B7
:1004500080917200833009F09AC01092740010925B
:10046000730080E090E0C3E0D0E002E010E0FC0127
:10047000E659FF4F2081FC01E259FF4F808128138C
:1004800016C0809168009091690001969093690070
:1004900080936800049779F41093610000936000E2
:1004A0000E94D502109269001092680004C0D09397
:1004B0006100C09360008091730090917400019678
:1004C00090937400809373008430910584F280913E
:1004D0006000909161000297E9F482E30E941902A2
:1004E0002FE784E89EE1215080409040E1F700C072
:1004F000000081E30E94190281E090E09093610086
:100500008093600082E080937200109265001092E8
:10051000640046C080916000909161000397B9F536
:10052000DC9A83E30E941902809164009091650037
:10053000029764F42FE784E89EE1215080409040C8
:10054000E1F700C0000081E30E94190281E090E021
:1005500090936100809360008093720080916400AA
:1005600090916500029751F484E090E090936100CF
:100570008093600010926500109264008091640086
:10058000909165000196909365008093640080913E
:10059000600090916100049719F484E30E941902AD
:1005A000DF91CF911F910F9108958FEF8ABB7894BF
:1005B00085E883BF81E089BF08958FEF8ABB13BEB2
:1005C00019BE089580916600909167004597439702
:1005D00068F48BB31BBA9BB380E489278BBB8BB3C6
:1005E00080588BBB9BB380E189278BBB80916600D1
:1005F00090916700449768F48BB31BBA9BB380E279
:1006000089278BBB8BB380588BBB9BB380E1892739
:100610008BBB8091660090916700019688329105AE
:100620002CF4909367008093660008951092670001
:10063000109266000E94DD021BBA0895F894FFCF65
:020640000100B7
:00000001FF
