:100000000C942A000C943C000C943C000C943C0092
:100010000C943C000C943C000C943C000C943C0070
:100020000C943C000C943C000C943C000C943C0060
:100030000C943C000C943C000C943C000C943C0050
:100040000C943C000C943C000C943C000C943C0040
:100050000C943C0011241FBECFE5D8E0DEBFCDBF1D
:1000600020E0A0E6B0E001C01D92A036B207E1F7A3
:100070000E9430020C9462020C9400008830B0F4AC
:100080009AB3482F477021E030E0042E02C0220FBF
:10009000331F0A94E2F7209529232ABB9AB3262F0F
:1000A00001C0220F4A95EAF7922B9ABB98EF980F5E
:1000B0009830B0F497B3482F477021E030E0042E19
:1000C00002C0220F331F0A94E2F72095292327BB91
:1000D00097B3262F01C0220F4A95EAF7922B97BBC0
:1000E00090EF980F9830B0F494B3482F477021E008
:1000F00030E0042E02C0220F331F0A94E2F720954D
:10010000292324BB94B3262F01C0220F4A95EAF776
:10011000922B94BB98EE980F9830A0F491B387700F
:1001200021E030E0082E02C0220F331F0A94E2F7CC
:100130002095292321BB91B301C0660F8A95EAF768
:10014000692B61BB0895813041F028F0823039F08D
:10015000833039F008956ABB089567BB089564BB86
:10016000089561BB08958830B0F49BB3482F477061
:1001700021E030E0042E02C0220F331F0A94E2F780
:10018000209529232BBB9BB3262F01C0220F4A9514
:10019000EAF7922B9BBB98EF980F9830B0F498B386
:1001A000482F477021E030E0042E02C0220F331F99
:1001B0000A94E2F72095292328BB98B3262F01C083
:1001C000220F4A95EAF7922B98BB90EF980F983040
:1001D000B0F495B3482F477021E030E0042E02C000
:1001E000220F331F0A94E2F72095292325BB95B3EC
:1001F000262F01C0220F4A95EAF7922B95BB98EE65
:10020000980F9830A0F492B3877021E030E0082E68
:1002100002C0220F331F0A94E2F72095292322BB44
:1002200092B301C0660F8A95EAF7692B62BB089505
:10023000CF93C82F682F661F6627661F87E00E942E
:10024000B300C6FB662760F986E00E94B300C5FBD9
:10025000662760F985E00E94B300C4FB662760F959
:1002600084E00E94B30060E089E00E94B30060E097
:100270008AE00E94B30061E08BE00E94B3008FE34C
:100280009FE10197F1F700C0000060E08BE00E9461
:10029000B3008FE39FE10197F1F700C00000C3FBBB
:1002A000662760F987E00E94B300C2FB662760F909
:1002B00086E00E94B300C1FB662760F985E00E94DA
:1002C000B3006C2F617084E00E94B30061E08BE0AA
:1002D0000E94B3008FE39FE10197F1F700C0000097
:1002E00060E08BE00E94B3008FE39FE10197F1F79C
:1002F00000C00000CF9108952FEF89EF90E02150CA
:1003000080409040E1F700C0000060EF80E00E9474
:10031000A30061E089E00E943E0061E08AE00E9463
:100320003E0061E08BE00E943E0083E30E941801E2
:100330002FEF81EE94E0215080409040E1F700C023
:10034000000082E30E9418012FEF81EE94E021501B
:1003500080409040E1F700C0000088E20E94180150
:100360008FE39FE10197F1F700C000008EE00E944B
:1003700018019FEF21EE84E0915020408040E1F78A
:1003800000C0000081E00E9418018FE39FE1019707
:10039000F1F700C000000895CF93C82F682F661FA3
:1003A0006627661F87E00E94B300C6FB662760F9D8
:1003B00086E00E94B300C5FB662760F985E00E94D5
:1003C000B300C4FB662760F984E00E94B30061E0DB
:1003D00089E00E94B30060E08AE00E94B30061E01F
:1003E0008BE00E94B3008FE39FE10197F1F700C01B
:1003F000000060E08BE00E94B3008FE39FE1019773
:10040000F1F700C00000C3FB662760F987E00E9497
:10041000B300C2FB662760F986E00E94B300C1FB0F
:10042000662760F985E00E94B3006C2F617084E05C
:100430000E94B30061E08BE00E94B3008FE39FE174
:100440000197F1F700C0000060E08BE00E94B3006C
:100450008FE39FE10197F1F700C00000CF9108956D
:100460000E947C010E94550280EF84BB15BA0F2EBA
:10047000F0E5FF2EF02D00EA10E6D0E90E945E02C2
:10048000C82F0E94CC01C23311F4D5BBF7CFC433BF
:1004900011F415BBF3CFC13311F405BBEFCFC33358
:1004A00011F4F5BAEBCF15BAE9CF899A889886E8A6
:1004B00080BD87E689B9539A549A08955F9BFECF11
:0804C0008CB10895F894FFCF00
:00000001FF
